:020000040000FA
:100000000C9462000C948A000C948A000C948A0070
:100010000C948A000C948A000C948A000C948A0038
:100020000C948A000C948A000C948A000C948A0028
:100030000C948A000C948A000C948A000C948A0018
:100040000C9467090C948A000C9435090C940F09E0
:100050000C948A000C948A000C948A000C948A00F8
:100060000C94B1090C948A000000000024002700C1
:100070002A0000000000250028002B0000000000DE
:1000800023002600290004040404040404040202DA
:100090000202020203030303030301020408102007
:1000A0004080010204081020010204081020000012
:1000B0000008000201000003040700000000000027
:1000C0000000D00A11241FBECFEFD8E0DEBFCDBFA5
:1000D00024E0AEECB2E001C01D92A037B207E1F718
:1000E00012E0A0E0B1E0E4E0FFE102C005900D9273
:1000F000AE3CB107D9F710E0C2E6D0E004C02197CA
:10010000FE010E947A0FC136D107C9F70E94260B63
:100110000C94800F0C94000008950895AF92BF9244
:10012000CF92DF92EF92FF920F931F93CF93DF93C3
:100130006C017B018B01040F151FEB015E01AE18F2
:10014000BF08C017D10759F06991D601ED91FC9114
:100150000190F081E02DC6010995892B79F7C50141
:10016000DF91CF911F910F91FF90EF90DF90CF9093
:10017000BF90AF900895FC01538D448D252F30E042
:10018000842F90E0821B930B541710F0CF960895A4
:1001900001970895FC01918D828D981761F0A28DD1
:1001A000AE0FBF2FB11D5D968C91928D9F5F9F7397
:1001B000928F90E008958FEF9FEF0895FC01918D4D
:1001C000828D981731F0828DE80FF11D858D90E0BA
:1001D00008958FEF9FEF0895FC01918D228D892F57
:1001E00090E0805C9F4F821B91098F73992708953F
:1001F0008FEA93E00E94EC0021E0892B09F420E0D3
:10020000822F089580E090E0892B29F00E94F80069
:1002100081110C9400000895FC01A48DA80FB92F42
:10022000B11DA35ABF4F2C91848D90E001968F731E
:100230009927848FA689B7892C93A089B1898C913D
:10024000837080648C93938D848D981306C002888C
:10025000F389E02D80818F7D80830895EF92FF9256
:100260000F931F93CF93DF93EC0181E0888F9B8DD9
:100270008C8D98131AC0E889F989808185FF15C093
:100280009FB7F894EE89FF896083E889F9898081B6
:100290008370806480839FBF81E090E0DF91CF9185
:1002A0001F910F91FF90EF900895F62E0B8D10E0A7
:1002B0000F5F1F4F0F731127E02E8C8D8E110CC016
:1002C0000FB607FCFACFE889F989808185FFF5CF61
:1002D000CE010E940C01F1CFEB8DEC0FFD2FF11D33
:1002E000E35AFF4FF0829FB7F8940B8FEA89FB899E
:1002F00080818062CFCFCF93DF93EC01888D8823FC
:10030000B9F0AA89BB89E889F9898C9185FD03C078
:10031000808186FD0DC00FB607FCF7CF8C9185FF5D
:10032000F2CF808185FFEDCFCE010E940C01E9CF95
:10033000DF91CF910895833081F028F4813099F0D6
:100340008230A9F008958730A9F08830C9F0843050
:10035000B1F4809180008F7D03C0809180008F7701
:1003600080938000089584B58F7784BD089584B507
:100370008F7DFBCF8091B0008F778093B000089580
:100380008091B0008F7DF9CFCF93DF93282F30E09D
:10039000F901E255FF4F8491F901E656FF4FD491E0
:1003A000F901EA57FF4FC491CC23A1F081110E94BB
:1003B0009B01EC2FF0E0EE0FFF1FE458FF4FA591DB
:1003C000B491EC91ED2381E090E009F480E0DF91BD
:1003D000CF91089580E090E0FACF1F93CF93DF9301
:1003E000282F30E0F901E255FF4F8491F901E656DC
:1003F000FF4FD491F901EA57FF4FC491CC23A9F0E4
:10040000162F81110E949B01EC2FF0E0EE0FFF1FD1
:10041000EE58FF4FA591B4918FB7F894EC9111115C
:1004200008C0D095DE23DC938FBFDF91CF911F9161
:100430000895DE2BF8CFCF93DF9390E0FC01E656D2
:10044000FF4F24918A579F4FFC0184918823D1F05C
:1004500090E0880F991FFC01E859FF4FA591B491D6
:10046000FC01EE58FF4FC591D49161110EC09FB7AA
:10047000F8948C91E22FE0958E238C932881E223CF
:10048000E8839FBFDF91CF9108958FB7F894EC91E7
:10049000E22BEC938FBFF6CF3FB7F89480913903EE
:1004A00090913A03A0913B03B0913C0326B5A89BE1
:1004B00005C02F3F19F00196A11DB11D3FBFBA2FF6
:1004C000A92F982F8827BC01CD01620F711D811DB6
:1004D000911D42E0660F771F881F991F4A95D1F73B
:1004E00008958F929F92AF92BF92CF92DF92EF9238
:1004F000FF924B015C010E944C026B017C010E9447
:100500004C026C197D098E099F09683E7340810574
:100510009105A8F321E0821A9108A108B10888EE9C
:10052000C80E83E0D81EE11CF11C81149104A104C3
:10053000B10429F7FF90EF90DF90CF90BF90AF907C
:100540009F908F90089520911503260F3327331F16
:1005500021323105ECF42091A903FC0190E080E008
:10056000243069F082E00895A09115032191AC0137
:100570004B505D4FA40FB52FB11D2C9301968617DC
:1005800098F380911503680F6093150380E0089538
:1005900081E008951092A90381E08093880310926E
:1005A000830361E082E10E94ED0161E083E10E944A
:1005B000ED01E9EBF0E080818E7F808380818D7F8B
:1005C000808388E48093B80085E48093BC0008951C
:1005D000CF93DF9391E09093F4028823B9F0C09118
:1005E000B800D091BA008091BC008A7B8093BC0097
:1005F00060E082E10E94ED0160E083E10E94ED0194
:100600000E94CA02D093BA00C093B800DF91CF9184
:100610000895CF92DF92EF92FF920F931F93CF93A3
:10062000DF93D82FC62F613208F098C00E944C0289
:100630006B017C018091A90381116BC081E08093E3
:10064000A903809388039FEF9093870310928603FA
:100650009C0F909385038093840380918403DD0F26
:10066000D82BD093840380918303813009F078C024
:10067000109283030E944C026B017C0180918403E1
:100680008093BB008091AB039091AC03A091AD032C
:10069000B091AE03892B8A2B8B2BA1F00E944C02C8
:1006A0000091AB031091AC032091AD033091AE03E8
:1006B0006C197D098E099F09061717072807390746
:1006C00008F448C08091BC0083FDD8CF85EC8093AE
:1006D000BC000E944C026B017C018091A903813017
:1006E00009F440C0809186038C1710F4C0918603F2
:1006F000E3E6F3E0A9E8B3E080E08C1355C08C2F6B
:10070000DF91CF911F910F91FF90EF90DF90CF90ED
:1007100008958091AB039091AC03A091AD03B0918B
:10072000AE03892B8A2B8B2B09F484CF0E944C02B9
:100730000091AB031091AC032091AD033091AE0357
:100740006C197D098E099F090617170728073907B5
:1007500008F070CF8091AA030E94E802C0E0CFCFDA
:1007600085EEB5CF8091AB039091AC03A091AD0322
:10077000B091AE03892B8A2B8B2B09F4AECF0E944C
:100780004C020091AB031091AC032091AD0330916A
:10079000AE036C197D098E099F09061717072807F4
:1007A000390708F09ACFD6CF91919D938F5FA5CF4F
:1007B0000895E0915C0380915B03E81730F4F0E06A
:1007C000E757FC4F808190E008958FEF9FEF0895E9
:1007D00090915C0380915B032FEF3FEF981748F4F3
:1007E000E92FF0E0E757FC4F208130E09F5F9093C6
:1007F0005C03C901089580915B0390915C03891BA0
:10080000990B0895CF92DF92EF92FF920F931F936F
:10081000CF93DF937C01CB018A01209160032223D7
:1008200089F0EB016B01C40ED51ECC15DD0569F016
:100830006991D701ED91FC910190F081E02DC70104
:100840000995F3CF642F0E94A302C801DF91CF91D5
:100850001F910F91FF90EF90DF90CF900895CF936D
:10086000DF931F92CDB7DEB7698320916003222307
:10087000F9F020915D03203258F021E030E0FC01D6
:100880003383228390E080E00F90DF91CF91089531
:1008900080915E03E82FF0E0EC52FD4F9981908348
:1008A0008F5F80935E0380935D0381E090E0ECCFE7
:1008B00061E0CE0101960E94A302F7CFCF92DF92B2
:1008C000EF92FF920F931F93CF93DF93D0915D032D
:1008D00081E0D13208F09CC0C0915F030E944C02BD
:1008E0006B017C018091A90381116CC082E080932F
:1008F000A90381E0809388038FEF80938703109290
:100900008603D0938503A4EDB2E0E3E6F3E080E054
:10091000D8138DC01092840380918403CC0FC82B10
:10092000C093840380918303813009F084C01092C6
:1009300083030E944C026B017C01809184038093AD
:10094000BB008091AB039091AC03A091AD03B0913B
:10095000AE03892B8A2B8B2BA1F00E944C020091B5
:10096000AB031091AC032091AD033091AE036C1931
:100970007D098E099F09061717072807390708F40C
:1009800042C08091BC0083FDD8CF85EC8093BC0031
:100990000E944C026B017C018091A903823009F412
:1009A0004CC0809187038F3F09F469C08091870311
:1009B000803209F466C080918703803309F463C0F4
:1009C00084E026C08091AB039091AC03A091AD036D
:1009D000B091AE03892B8A2B8B2B09F483CF0E9415
:1009E0004C020091AB031091AC032091AD03309108
:1009F000AE036C197D098E099F0906171707280792
:100A0000390708F06FCF8091AA030E94E80285E0C1
:100A100010925E0310925D0310926003DF91CF91FC
:100A20001F910F91FF90EF90DF90CF9008959D91CF
:100A300091938F5F6DCF85EEA9CF8091AB0390919D
:100A4000AC03A091AD03B091AE03892B8A2B8B2B05
:100A500009F4A2CF0E944C020091AB031091AC03A9
:100A60002091AD033091AE036C197D098E099F0969
:100A7000061717072807390708F08ECFC4CF80E084
:100A8000C7CF82E0C5CF83E0C3CF089590E080E078
:100A90000895DF92EF92FF920F931F93CF93DF930E
:100AA0007C01809161039091620321E020936003B7
:100AB00028E620935F0310925E0310925D03DC0131
:100AC000ED91FC910190F081E02D60E0099580911D
:100AD0006103909162030E945E0467E088E60E94D1
:100AE000090310925C0380935B03809161039091F2
:100AF0006203DC01ED91FC910284F385E02D099500
:100B00008F77282F30E094E0359527959A95E1F777
:100B1000922F990F990FC22FC91BCC0FC80F80912C
:100B2000610390916203DC01ED91FC910284F385F5
:100B3000E02D09959C0144E0359527954A95E1F70C
:100B40002F703327922F990F990FD22FD91BDD0FBA
:100B5000D80F8091610390916203DC01ED91FC91CB
:100B60000284F385E02D09959C0154E03595279585
:100B70005A95E1F72F703327922F990F990F122F63
:100B8000191B110F180F8091610390916203DC0112
:100B9000ED91FC910284F385E02D0995809161032C
:100BA00090916203DC01ED91FC910284F385E02DCC
:100BB00009959C0164E0359527956A95E1F72F70BA
:100BC0003327922F990F990F022F091B000F080F3F
:100BD0008091610390916203DC01ED91FC910284AC
:100BE000F385E02D09959C0174E0359527957A955C
:100BF000E1F72F703327922F990F990FD22ED91A20
:100C0000DD0CD80E8091610390916203DC01ED91BF
:100C1000FC910284F385E02D09959C01E4E0359573
:100C20002795EA95E1F72F703327922F990F990FA7
:100C3000291B220F820FF7018083D1820283138345
:100C4000D483C583C701DF91CF911F910F91FF908E
:100C5000EF90DF900895CF93DF93EC0181E08093D4
:100C6000600388E680935F0310925E0310925D0339
:100C7000E881F9810190F081E02D6FE0CE010995C6
:100C8000CE010E945E0461E088E60E940903109292
:100C90005C0380935B03E881F9810284F385E02D96
:100CA000CE010995DF91CF910895CF93DF93EC01A9
:100CB00060E08E810E94ED0161E08E810E94ED0175
:100CC00060E08E810E94ED018BE891E00197F1F7E1
:100CD000DF91CF910895CF92DF92EF92FF920F9321
:100CE0001F93CF93DF936C017C0187E0E80EF11C2A
:100CF000D0E0C0E0062F10E0B8010C2E02C07595C0
:100D000067950A94E2F76170F70181917F010E9473
:100D1000ED012196C430D10579F7C601DF91CF915D
:100D20001F910F91FF90EF90DF90CF900C9455069C
:100D3000CF92DF92EF92FF920F931F93CF93DF93A7
:100D4000EC01F62E642F8C810E94ED018D818F3F86
:100D500019F060E00E94ED010F2D10E08F8584FFF7
:100D600025C06E0187E0C80ED11CF12CE12CB80122
:100D70000E2C02C0759567950A94E2F76170F60132
:100D800081916F010E94ED01FFEFEF1AFF0A88E0E9
:100D9000E816F10461F7CE01DF91CF911F910F9119
:100DA000FF90EF90DF90CF900C945506B80184E04F
:100DB000759567958A95E1F7CE010E946B066F2DB8
:100DC000CE01DF91CF911F910F91FF90EF90DF90B7
:100DD000CF900C946B0640E0682F88E594E00C946B
:100DE000980681E00E94EB068BE39FE10197F1F703
:100DF0000895CF93DF93823029F49091670498602F
:100E00009093670480936B0410926C0480E4809349
:100E10006D0480E180936E0480E580936F0461E04F
:100E200080915C040E941B0280915D048F3F19F049
:100E300061E00E941B0261E080915E040E941B023F
:100E4000C8E5D4E09E01285534408091670484FDB4
:100E50000BC084E090E021962817390744F461E044
:100E60008E810E941B02EECF88E090E0F4CF8BE3EE
:100E70009DE00197F1F760E080915C040E94ED0134
:100E800060E080915E040E94ED0180915D048F3FDF
:100E900019F060E00E94ED018091670484FD34C088
:100EA00063E088E594E00E946B06CBE4D6E4CE01D3
:100EB0000197F1F763E088E594E00E946B062197C3
:100EC000F1F763E088E594E00E946B0683E592E029
:100ED0000197F1F762E088E594E00E946B0680914B
:100EE000670480620E94EB0684E0809368048CE0D3
:100EF0000E94EB060E94F10682E08093690486E07E
:100F0000DF91CF910C94EB0680620E94EB068BE49C
:100F100096E40197F1F78091670480620E94EB06E6
:100F200083E592E00197F1F78091670480620E9467
:100F3000EB06D5CF90916B04691710F06FEF690F36
:100F4000E62FF0E0E85AFB4F9489890F80680C94F3
:100F5000EB0641E00E94980681E090E00895FB01D5
:100F600001900020E9F73197AF01461B570BDC01D8
:100F7000ED91FC910280F381E02D09948F929F9274
:100F8000AF92BF92EF92FF920F931F93CF93DF9395
:100F9000CDB7DEB7A1970FB6F894DEBF0FBECDBFB9
:100FA0007C01FA01CB0119A2223008F42AE08E015B
:100FB0000F5D1F4F822E912CB12CA12CBF01A501DA
:100FC00094010E94580FF901CA016A300CF5605D66
:100FD000D8016E938D01232B242B252B79F790E0DC
:100FE00080E0109721F0BD01C7010E94AF07A196D4
:100FF0000FB6F894DEBF0FBECDBFDF91CF911F912A
:101000000F91FF90EF90BF90AF909F908F900895B9
:10101000695CDECFCF93DF93482F50E070E060E053
:101020002AE08FEA93E00E94BE07EC0161E371E0E1
:101030008FEA93E00E94AF078C0F9D1FDF91CF9145
:101040000895AC01990F660B770B2AE088E594E0D0
:101050000C94BE07CF93DF93BC018FEA93E00E940C
:10106000AF07EC0161E371E08FEA93E00E94AF0704
:101070008C0F9D1FDF91CF9108950F931F93809147
:10108000450390914603009709F048C084E391E03E
:101090000E942A082FB7F89480914103909142034F
:1010A000A0914303B09144032FBF4091D0025091CF
:1010B000D1026091D2027091D3028C019D01041B78
:1010C000150B260B370BB901A801443F51406105B0
:1010D000710580F18093D0029093D102A093D20247
:1010E000B093D30282E591E00E942A088091CE025B
:1010F0009091CF02892B69F481E090E09093CF0228
:101100008093CE026091CE028DE01F910F910C94DE
:10111000ED011092CF021092CE02F4CF019751F45C
:1011200080E691E00E942A081092CF021092CE022F
:1011300060E0EACF1F910F910895CF93DF9300D025
:1011400000D000D0CDB7DEB7CE0101960E94490590
:101150008C81843120F08E8181110E943D08269679
:101160000FB6F894DEBF0FBECDBFDF91CF910895CB
:10117000CF93DF9300D000D000D0CDB7DEB7CE0143
:1011800001960E9449058C81883020F08E81811162
:101190000E943D0826960FB6F894DEBF0FBECDBF65
:1011A000DF91CF9108950C94AF0785ED8093BC003B
:1011B0008091AB039091AC03A091AD03B091AE03CD
:1011C0000796A11DB11D23E0B695A7959795879524
:1011D0002A95D1F72091BC0024FD03C01092A903E9
:1011E00008954091AB035091AC036091AD037091B1
:1011F000AE03452B462B472B69F30097A105B1059C
:1012000041F025E32A95F1F700000197A109B10902
:10121000E1CF8091AA030C94E8020C94420F1F9234
:101220000F920FB60F9211242F933F934F935F931A
:101230006F937F938F939F93AF93BF93EF93FF939E
:101240008FEA93E00E940C01FF91EF91BF91AF9163
:101250009F918F917F916F915F914F913F912F91CE
:101260000F900FBE0F901F9018951F920F920FB600
:101270000F9211242F938F939F93EF93FF93E091FD
:10128000BF03F091C0038081E091C503F091C603D4
:1012900082FD1BC090818091C8038F5F8F73209166
:1012A000C903821741F0E091C803F0E0E155FC4F1B
:1012B000958F8093C803FF91EF919F918F912F910C
:1012C0000F900FBE0F901F9018958081F4CF1F9242
:1012D0000F920FB60F9211242F933F938F939F93EA
:1012E000AF93BF938091410390914203A091430338
:1012F000B09144033091380323E0230F2D3758F584
:101300000196A11DB11D2093380380934103909352
:101310004203A0934303B093440380913903909117
:101320003A03A0913B03B0913C030196A11DB11D6E
:101330008093390390933A03A0933B03B0933C030B
:10134000BF91AF919F918F913F912F910F900FBEC1
:101350000F901F90189526E8230F0296A11DB11D2E
:10136000D2CF1F920F920FB60F9211242F933F935B
:101370004F935F936F937F938F939F93AF93BF939D
:10138000EF93FF938091B900887F803609F44AC0BB
:10139000F0F5883209F4A7C018F5803109F49BC034
:1013A000B8F4882309F4F9C0883009F494C0FF9197
:1013B000EF91BF91AF919F918F917F916F915F91CD
:1013C0004F913F912F910F900FBE0F901F90189546
:1013D000883109F488C0803251F78093870314C0A4
:1013E000803409F49DC040F48033B9F38833F9F6B2
:1013F0008093870385ECB0C0803509F485C08835BB
:1014000009F496C0883499F60E94D508D0CF88395F
:1014100009F48CC038F5883729F050F4883611F07B
:10142000803729F683E08093A9031092370357C0D1
:10143000883809F47BC0803919F0803809F0B7CFBB
:1014400080913703803208F071C0E091370381E06A
:101450008E0F809337038091BB00F0E0E95EFC4F74
:1014600080833DC0803B39F0E0F4803A09F479C0D4
:10147000883A09F09CCF84E08093A9031092160368
:1014800010921503E0913F03F0914003099580917C
:10149000150381110FC081E0809315031092F502AE
:1014A00009C0803C09F4A6CF883C09F4A3CF883B4F
:1014B00009F07DCFE091160381E08E0F8093160333
:1014C000F0E0EB50FD4F80818093BB0090911603BC
:1014D0008091150329C0809184038093BB0085EC23
:1014E0008093BC0064CF9091860380918503981708
:1014F00058F5E091860381E08E0F80938603F0E03B
:10150000ED59FC4F8081E9CFE091860381E08E0F99
:10151000809386038091BB00F0E0ED59FC4F8083FF
:1015200090918603809185039817C8F285E8D8CFFB
:10153000E091860381E08E0F809386038091BB004B
:10154000F0E0ED59FC4F80838091880381115CCFDE
:1015500081E08093830384EA8093BC001092A90306
:1015600026CF85EC8093BC001092A90380913703AD
:10157000803230F4E0913703F0E0E95EFC4F1082F6
:101580006091370370E0E0913D03F0913E0387E105
:1015900093E00995109237030ACF1092870334CF56
:1015A000EFEAF3E01382128288EE93E0A0E0B0E06D
:1015B00084839583A683B78325E031E0318320833C
:1015C00025EC30E03587248724EC30E03787268708
:1015D00020EC30E0318B208B21EC30E0338B228B00
:1015E00022EC30E0358B248B26EC30E0378B268BD9
:1015F000118E128E138E148EECE4F4E0138212829C
:1016000084839583A683B78387E191E09183808368
:10161000E8E5F4E01382128289E291E0918380830D
:101620008CE084838FEF85838BE0868385E08783DE
:1016300084E0808783E0818782E082871386148636
:1016400015861686178681E00C94F906CF93DF93F2
:1016500000D000D000D0CDB7DEB7789484B58260DA
:1016600084BD84B5816084BD85B5826085BD85B546
:10167000816085BD80916E00816080936E001092C4
:10168000810080918100826080938100809181003F
:1016900081608093810080918000816080938000D0
:1016A0008091B10084608093B1008091B00081602E
:1016B0008093B00080917A00846080937A0080915A
:1016C0007A00826080937A0080917A0081608093B2
:1016D0007A0080917A00806880937A001092C1002D
:1016E000E091BF03F091C00382E08083E091BB03EF
:1016F000F091BC031082E091BD03F091BE038FEC2A
:1017000080831092C703E091C303F091C40386E085
:101710008083E091C103F091C20380818061808366
:10172000E091C103F091C203808188608083E091E1
:10173000C103F091C203808180688083E091C1037E
:10174000F091C20380818F7D80838CE494E090933C
:1017500062038093610310925C0310925B0310920A
:101760005E0310925D030E94CA028CE890E09093A1
:10177000400380933F038DE890E090933E03809375
:101780003D03809161039091620321E02093600307
:1017900028E620935F030E945E048111B2C280910B
:1017A0006103909162030E942B0690E0880F892FBD
:1017B000881F990B892B21F086E891E00E942A0866
:1017C0008091610390916203DD24D394D0926003F1
:1017D00028E6E22EE0925F0310925E0310925D0312
:1017E000DC01ED91FC910190F081E02D60E0099524
:1017F0008091610390916203DC01ED91FC91019075
:10180000F081E02D60E3099580916103909162037E
:10181000DC01ED91FC910190F081E02D69E50995E5
:101820008091610390916203DC01ED91FC91019044
:10183000F081E02D67E0099580916103909162034A
:10184000DC01ED91FC910190F081E02D64E00995BF
:101850008091610390916203DC01ED91FC91019014
:10186000F081E02D60E10995809161039091620320
:10187000DC01ED91FC910190F081E02D61E0099592
:101880008091610390916203DC01ED91FC910190E4
:10189000F081E02D69E109958091610390916203E7
:1018A0000E945E0480916103909162030E942B0666
:1018B000F82E0091610310916203D0926003E092D0
:1018C0005F0310925E0310925D03D801ED91FC91CD
:1018D0000190F081E02D6FE0C80109956F2D6F77C1
:1018E000D801ED91FC910190F081E02DC80109959E
:1018F000C8010E945E0482E00E94F9060E94F1067F
:1019000060E080E00E949A0769EA71E088E594E06F
:101910000E94D30861E080E00E949A0764EB71E0C6
:1019200088E594E00E94D30868EE73E080E090E0E0
:101930000E94710260E089E00E941B0260E088E082
:101940000E941B0260E087E00E941B0260E08EE0C4
:101950000E941B0261E08DE00E941B0268EC70E0B7
:1019600080E090E00E94710290E080E00E940D090A
:101970000E940A0890E080E00E940D09823009F47C
:10198000C5C1833009F4D7C18130B1F483EC91E053
:101990000E942A0881E090E09093540380935303BF
:1019A00010925203109251031092500310924F0361
:1019B00090935A038093590300E010E082E0E82EF0
:1019C000F12C93E0C92ED12CA0905303B090540376
:1019D000B1E0AB16B10409F03FC01092540310926D
:1019E000530310925203109251031092500310921D
:1019F0004F0361E090E080E00E944A0F6DEE71E0DD
:101A00008FEA93E00E94D30890E080E00E940D09E5
:101A10000E940A08B0925A03A09259030E94F1064C
:101A200060E080E00E949A076EEF71E088E594E044
:101A30000E94D30861E080E00E949A076CE072E0A7
:101A400088E594E00E94D30860EB74E080E090E0C9
:101A50000E9471020E94F1068091510390915203FD
:101A6000019709F03FC01092520310925103109257
:101A70005403109253031092500310924F0362E0EC
:101A800090E080E00E944A0F6BE172E08FEA93E001
:101A90000E94D30890E080E00E940D090E940A088D
:101AA000F0925A03E09259030E94F10660E080E050
:101AB0000E949A076EEF71E088E594E00E94D308D7
:101AC00061E080E00E949A076CE272E088E594E0B1
:101AD0000E94D30860EB74E080E090E00E94710205
:101AE0000E94F10680914F0390915003019709F0F5
:101AF0003FC01092500310924F0310925403109263
:101B00005303109252031092510363E090E080E07F
:101B10000E944A0F6CE372E08FEA93E00E94D308C0
:101B200090E080E00E940D090E940A08D0925A03BA
:101B3000C09259030E94F10660E080E00E949A077B
:101B40006EEF71E088E594E00E94D30861E080E0E8
:101B50000E949A076DE472E088E594E00E94D30841
:101B600060EB74E080E090E00E9471020E94F10658
:101B70008091590390915A038130910509F0F0C08A
:101B80000E94B8082FB7F8948091410390914203C6
:101B9000A0914303B09144032FBF809355039093CA
:101BA0005603A0935703B093580389E00E94C401E1
:101BB000909354038093530388E00E94C401909350
:101BC00052038093510387E00E94C4019093500315
:101BD00080934F038EE00E94C40190934E03809344
:101BE0004D038130910511F5909346038093450391
:101BF0000E94F10660E080E00E949A076EE572E0C4
:101C000088E594E00E94D30861E080E00E949A0792
:101C10006EE672E088E594E00E94D30860EB74E021
:101C200080E090E00E9471020E94F10680915503CD
:101C300090915603A0915703B091580340914903E6
:101C400050914A0360914B0370914C034C015D012C
:101C5000841A950AA60AB70AB501A401413D574066
:101C600061057105C0F08093490390934A03A093E6
:101C70004B03B0934C038091470390914803019626
:101C8000833091050CF086C09093480380934703FE
:101C900081E08093000180910001882331F110924E
:101CA000000180914703909148038130910509F428
:101CB00076C08230910509F485C0892BB1F40E9469
:101CC000F10660E080E00E949A076EE772E088E526
:101CD00094E00E94D30861E080E00E949A076EE8D9
:101CE00072E088E594E00E94D3080115110509F41B
:101CF0006BCE0E94F800882309F466CE0E94000093
:101D000063CE84E791E00E942A08FFCF81ED91E045
:101D10000E942A08109254031092530381E090E02D
:101D200090935203809351031092500310924F03EB
:101D300082E090E03DCE8FED91E00E942A08109263
:101D4000540310925303109252031092510381E0F6
:101D500090E09093500380934F0383E090E028CE6F
:101D60008230910529F40E94B8080E949D080ACF8C
:101D7000039709F007CF0E94B808CE0101960E9490
:101D800049058C818E3088F38E81882371F30E94FF
:101D90003D08EBCF109248031092470379CF0E9481
:101DA000F10660E080E00E949A076FE972E088E542
:101DB00094E00E94D30861E080E00E949A076DEAF7
:101DC00072E08FCFCE0101960E9449050E94F10674
:101DD00060E080E00E949A076EEB72E088E594E094
:101DE0000E94D30860E086E00E949A078C8190E010
:101DF0000E94210862EC72E088E594E00E94D3081A
:101E00008D8190E00E94210862EC72E088E594E008
:101E10000E94D3088E8190E00E94210861E080E05A
:101E20000E949A0764EC72E088E594E00E94D3086F
:101E30004B8150E070E060E02AE088E594E00E9489
:101E4000BE076BEC72E088E594E00E94D3084A81FB
:101E500050E070E060E02AE088E594E00E94BE0770
:101E60006BEC72E088E594E00E94D308498150E071
:101E70004053584F70E060E02AE088E594E00E940B
:101E8000BE0733CFF999FECF92BD81BDF89A99274D
:101E900080B50895262FF999FECF1FBA92BD81BD56
:101EA00020BD0FB6F894FA9AF99A0FBE01960895DC
:101EB000A1E21A2EAA1BBB1BFD010DC0AA1FBB1F4E
:101EC000EE1FFF1FA217B307E407F50720F0A21BC0
:101ED000B30BE40BF50B661F771F881F991F1A942D
:101EE00069F760957095809590959B01AC01BD0157
:101EF000CF010895EE0FFF1F0590F491E02D099496
:101F0000F894FFCF01000000002E018E00BB007B83
:101F100001EC00CA00DE00000000002F04020446AD
:101F200005D803FB03E803D90300000000A9078ECE
:101F300000460545050D0A0070757368707265737B
:101F40007365642069732066616C736520696E2017
:101F5000626C696E6B0053746172742042757A7A98
:101F6000696E67007075736870726573736564205D
:101F70006973207472756500436F756C646E2774A5
:101F80002066696E642052544300525443206C6FA3
:101F9000737420706F7765722C206C657473207376
:101FA0006574207468652074696D65210057656CDF
:101FB000636F6D6520546F004369726375697420A7
:101FC0004469676573740053657420666F722031CD
:101FD0002F6461790053657420666F7220322F641C
:101FE00061790053657420666F7220332F646179C4
:101FF000005075736831205772697474656E203AA9
:10200000200052656D696E646572207365742000EE
:10201000666F72204F6E63652F64617920210050D6
:1020200075736832205772697474656E203A2000A7
:10203000666F722054776963652F6461792021008F
:102040005075736833205772697474656E203A2036
:1020500000666F72205468726963652F646179202D
:10206000210054616B65204D65646963696E65206C
:10207000200077697468205761726D20576174651C
:10208000720053746179204865616C746879203AF4
:1020900029004765742057656C6C20536F6F6E2064
:1020A0003A2900507265737320427574746F6E73B1
:1020B00000666F722052656D696E6465722E2E2EF9
:1020C000210054696D653A00446174653A20002F1F
:0220D00000000E
:107E0000112484B714BE81FFF0D085E080938100F7
:107E100082E08093C00088E18093C10086E0809377
:107E2000C20080E18093C4008EE0C9D0259A86E02C
:107E300020E33CEF91E0309385002093840096BBD3
:107E4000B09BFECF1D9AA8958150A9F7CC24DD24C4
:107E500088248394B5E0AB2EA1E19A2EF3E0BF2EE7
:107E6000A2D0813461F49FD0082FAFD0023811F036
:107E7000013811F484E001C083E08DD089C08234E0
:107E800011F484E103C0853419F485E0A6D080C0E4
:107E9000853579F488D0E82EFF2485D0082F10E0AE
:107EA000102F00270E291F29000F111F8ED06801E7
:107EB0006FC0863521F484E090D080E0DECF843638
:107EC00009F040C070D06FD0082F6DD080E0C81688
:107ED00080E7D80618F4F601B7BEE895C0E0D1E017
:107EE00062D089930C17E1F7F0E0CF16F0E7DF06D8
:107EF00018F0F601B7BEE89568D007B600FCFDCFD4
:107F0000A601A0E0B1E02C9130E011968C91119780
:107F100090E0982F8827822B932B1296FA010C0160
:107F200087BEE89511244E5F5F4FF1E0A038BF0790
:107F300051F7F601A7BEE89507B600FCFDCF97BE46
:107F4000E89526C08437B1F42ED02DD0F82E2BD052
:107F50003CD0F601EF2C8F010F5F1F4F84911BD097
:107F6000EA94F801C1F70894C11CD11CFA94CF0C13
:107F7000D11C0EC0853739F428D08EE10CD085E9AC
:107F80000AD08FE07ACF813511F488E018D01DD067
:107F900080E101D065CF982F8091C00085FFFCCF94
:107FA0009093C60008958091C00087FFFCCF809118
:107FB000C00084FD01C0A8958091C6000895E0E648
:107FC000F0E098E1908380830895EDDF803219F02E
:107FD00088E0F5DFFFCF84E1DECF1F93182FE3DFCA
:107FE0001150E9F7F2DF1F91089580E0E8DFEE27F6
:047FF000FF270994CA
:027FFE00040479
:00000001FF
